{
  "contractName": "ItemAuthenticity",
  "abi": [
    {
      "inputs": [],
      "stateMutability": "nonpayable",
      "type": "constructor"
    },
    {
      "anonymous": false,
      "inputs": [
        {
          "indexed": false,
          "internalType": "string",
          "name": "itemname",
          "type": "string"
        },
        {
          "indexed": false,
          "internalType": "uint256",
          "name": "itemprice",
          "type": "uint256"
        },
        {
          "indexed": false,
          "internalType": "uint256",
          "name": "itemquantity",
          "type": "uint256"
        },
        {
          "indexed": false,
          "internalType": "uint256",
          "name": "itemnumber",
          "type": "uint256"
        },
        {
          "indexed": false,
          "internalType": "address",
          "name": "itemowner",
          "type": "address"
        },
        {
          "indexed": false,
          "internalType": "string",
          "name": "carname",
          "type": "string"
        },
        {
          "indexed": false,
          "internalType": "string",
          "name": "carmodel",
          "type": "string"
        },
        {
          "indexed": false,
          "internalType": "uint256",
          "name": "carprice",
          "type": "uint256"
        }
      ],
      "name": "carevent",
      "type": "event"
    },
    {
      "anonymous": false,
      "inputs": [
        {
          "indexed": false,
          "internalType": "string",
          "name": "itemname",
          "type": "string"
        },
        {
          "indexed": false,
          "internalType": "uint256",
          "name": "itemprice",
          "type": "uint256"
        },
        {
          "indexed": false,
          "internalType": "uint256",
          "name": "itemquantity",
          "type": "uint256"
        },
        {
          "indexed": false,
          "internalType": "uint256",
          "name": "itemid",
          "type": "uint256"
        },
        {
          "indexed": false,
          "internalType": "uint256",
          "name": "itemtrackingstatus",
          "type": "uint256"
        },
        {
          "indexed": false,
          "internalType": "address",
          "name": "itemowner",
          "type": "address"
        }
      ],
      "name": "statusevent",
      "type": "event"
    },
    {
      "inputs": [],
      "name": "assembler",
      "outputs": [
        {
          "internalType": "address",
          "name": "",
          "type": "address"
        }
      ],
      "stateMutability": "view",
      "type": "function",
      "constant": true
    },
    {
      "inputs": [
        {
          "internalType": "uint256",
          "name": "",
          "type": "uint256"
        }
      ],
      "name": "batterymapping",
      "outputs": [
        {
          "internalType": "string",
          "name": "itemname",
          "type": "string"
        },
        {
          "internalType": "uint256",
          "name": "itemprice",
          "type": "uint256"
        },
        {
          "internalType": "uint256",
          "name": "itemquantity",
          "type": "uint256"
        },
        {
          "internalType": "uint256",
          "name": "itemnumber",
          "type": "uint256"
        },
        {
          "internalType": "address",
          "name": "itemowner",
          "type": "address"
        },
        {
          "internalType": "enum ItemAuthenticity.status",
          "name": "itemstatus",
          "type": "uint8"
        },
        {
          "internalType": "enum ItemAuthenticity.posession",
          "name": "itempossesdby",
          "type": "uint8"
        }
      ],
      "stateMutability": "view",
      "type": "function",
      "constant": true
    },
    {
      "inputs": [
        {
          "internalType": "uint256",
          "name": "",
          "type": "uint256"
        }
      ],
      "name": "carmapping",
      "outputs": [
        {
          "components": [
            {
              "internalType": "string",
              "name": "itemname",
              "type": "string"
            },
            {
              "internalType": "uint256",
              "name": "itemprice",
              "type": "uint256"
            },
            {
              "internalType": "uint256",
              "name": "itemquantity",
              "type": "uint256"
            },
            {
              "internalType": "uint256",
              "name": "itemnumber",
              "type": "uint256"
            },
            {
              "internalType": "address[]",
              "name": "ownerarray",
              "type": "address[]"
            },
            {
              "internalType": "address",
              "name": "itemowner",
              "type": "address"
            },
            {
              "internalType": "enum ItemAuthenticity.status",
              "name": "itemstatus",
              "type": "uint8"
            },
            {
              "internalType": "enum ItemAuthenticity.posession",
              "name": "itempossesdby",
              "type": "uint8"
            }
          ],
          "internalType": "struct ItemAuthenticity.enginestruct",
          "name": "engine",
          "type": "tuple"
        },
        {
          "components": [
            {
              "internalType": "string",
              "name": "itemname",
              "type": "string"
            },
            {
              "internalType": "uint256",
              "name": "itemprice",
              "type": "uint256"
            },
            {
              "internalType": "uint256",
              "name": "itemquantity",
              "type": "uint256"
            },
            {
              "internalType": "uint256",
              "name": "itemnumber",
              "type": "uint256"
            },
            {
              "internalType": "address[]",
              "name": "ownerarray",
              "type": "address[]"
            },
            {
              "internalType": "address",
              "name": "itemowner",
              "type": "address"
            },
            {
              "internalType": "enum ItemAuthenticity.status",
              "name": "itemstatus",
              "type": "uint8"
            },
            {
              "internalType": "enum ItemAuthenticity.posession",
              "name": "itempossesdby",
              "type": "uint8"
            }
          ],
          "internalType": "struct ItemAuthenticity.batterystruct",
          "name": "battery",
          "type": "tuple"
        },
        {
          "internalType": "string",
          "name": "carname",
          "type": "string"
        },
        {
          "internalType": "string",
          "name": "carmodel",
          "type": "string"
        },
        {
          "internalType": "uint256",
          "name": "carprice",
          "type": "uint256"
        },
        {
          "internalType": "address",
          "name": "carowner",
          "type": "address"
        },
        {
          "internalType": "enum ItemAuthenticity.carstatus",
          "name": "carstatus",
          "type": "uint8"
        }
      ],
      "stateMutability": "view",
      "type": "function",
      "constant": true
    },
    {
      "inputs": [
        {
          "internalType": "uint256",
          "name": "",
          "type": "uint256"
        }
      ],
      "name": "inventorymapping",
      "outputs": [
        {
          "internalType": "string",
          "name": "itemname",
          "type": "string"
        },
        {
          "internalType": "uint256",
          "name": "itemprice",
          "type": "uint256"
        },
        {
          "internalType": "uint256",
          "name": "itemquantity",
          "type": "uint256"
        },
        {
          "internalType": "uint256",
          "name": "itemnumber",
          "type": "uint256"
        },
        {
          "internalType": "address",
          "name": "itemowner",
          "type": "address"
        },
        {
          "internalType": "enum ItemAuthenticity.status",
          "name": "itemstatus",
          "type": "uint8"
        },
        {
          "internalType": "enum ItemAuthenticity.posession",
          "name": "itempossesdby",
          "type": "uint8"
        }
      ],
      "stateMutability": "view",
      "type": "function",
      "constant": true
    },
    {
      "inputs": [],
      "name": "manufacturer",
      "outputs": [
        {
          "internalType": "address",
          "name": "",
          "type": "address"
        }
      ],
      "stateMutability": "view",
      "type": "function",
      "constant": true
    },
    {
      "inputs": [
        {
          "internalType": "string",
          "name": "name",
          "type": "string"
        },
        {
          "internalType": "uint256",
          "name": "price",
          "type": "uint256"
        },
        {
          "internalType": "uint256",
          "name": "quantity",
          "type": "uint256"
        },
        {
          "internalType": "uint256",
          "name": "itemid",
          "type": "uint256"
        }
      ],
      "name": "itemcreation",
      "outputs": [],
      "stateMutability": "nonpayable",
      "type": "function"
    },
    {
      "inputs": [
        {
          "internalType": "string",
          "name": "name",
          "type": "string"
        },
        {
          "internalType": "uint256",
          "name": "price",
          "type": "uint256"
        },
        {
          "internalType": "uint256",
          "name": "quantity",
          "type": "uint256"
        },
        {
          "internalType": "uint256",
          "name": "itemid",
          "type": "uint256"
        }
      ],
      "name": "batterycreation",
      "outputs": [],
      "stateMutability": "nonpayable",
      "type": "function"
    },
    {
      "inputs": [
        {
          "internalType": "uint256",
          "name": "itemid",
          "type": "uint256"
        }
      ],
      "name": "buyandpayitem",
      "outputs": [],
      "stateMutability": "payable",
      "type": "function",
      "payable": true
    },
    {
      "inputs": [
        {
          "internalType": "uint256",
          "name": "itemid",
          "type": "uint256"
        }
      ],
      "name": "buyandpaybattery",
      "outputs": [],
      "stateMutability": "payable",
      "type": "function",
      "payable": true
    },
    {
      "inputs": [
        {
          "internalType": "uint256",
          "name": "itemid",
          "type": "uint256"
        }
      ],
      "name": "enginedeliveredbymanufacturer",
      "outputs": [],
      "stateMutability": "nonpayable",
      "type": "function"
    },
    {
      "inputs": [
        {
          "internalType": "uint256",
          "name": "itemid",
          "type": "uint256"
        }
      ],
      "name": "batterydeliveredbymanufacturer",
      "outputs": [],
      "stateMutability": "nonpayable",
      "type": "function"
    },
    {
      "inputs": [
        {
          "internalType": "uint256",
          "name": "num",
          "type": "uint256"
        }
      ],
      "name": "itemownersdetails",
      "outputs": [
        {
          "internalType": "address[]",
          "name": "",
          "type": "address[]"
        }
      ],
      "stateMutability": "view",
      "type": "function",
      "constant": true
    },
    {
      "inputs": [
        {
          "internalType": "uint256",
          "name": "num",
          "type": "uint256"
        }
      ],
      "name": "batteryownersdetails",
      "outputs": [
        {
          "internalType": "address[]",
          "name": "",
          "type": "address[]"
        }
      ],
      "stateMutability": "view",
      "type": "function",
      "constant": true
    },
    {
      "inputs": [
        {
          "internalType": "uint256",
          "name": "itemid",
          "type": "uint256"
        }
      ],
      "name": "itemreceived",
      "outputs": [],
      "stateMutability": "nonpayable",
      "type": "function"
    },
    {
      "inputs": [
        {
          "internalType": "uint256",
          "name": "itemid",
          "type": "uint256"
        }
      ],
      "name": "batteryreceived",
      "outputs": [],
      "stateMutability": "nonpayable",
      "type": "function"
    },
    {
      "inputs": [
        {
          "internalType": "string",
          "name": "carname",
          "type": "string"
        },
        {
          "internalType": "string",
          "name": "carmodel",
          "type": "string"
        },
        {
          "internalType": "uint256",
          "name": "carprice",
          "type": "uint256"
        },
        {
          "internalType": "uint256",
          "name": "carid",
          "type": "uint256"
        },
        {
          "internalType": "uint256",
          "name": "itemid",
          "type": "uint256"
        },
        {
          "internalType": "uint256",
          "name": "batteryid",
          "type": "uint256"
        }
      ],
      "name": "registercar",
      "outputs": [],
      "stateMutability": "nonpayable",
      "type": "function"
    },
    {
      "inputs": [
        {
          "internalType": "uint256",
          "name": "carid",
          "type": "uint256"
        }
      ],
      "name": "buyandpaycar",
      "outputs": [],
      "stateMutability": "payable",
      "type": "function",
      "payable": true
    },
    {
      "inputs": [
        {
          "internalType": "uint256",
          "name": "carprice",
          "type": "uint256"
        },
        {
          "internalType": "uint256",
          "name": "carid",
          "type": "uint256"
        }
      ],
      "name": "sellusedcar",
      "outputs": [],
      "stateMutability": "nonpayable",
      "type": "function"
    },
    {
      "inputs": [
        {
          "internalType": "uint256",
          "name": "carid",
          "type": "uint256"
        }
      ],
      "name": "carownershistory",
      "outputs": [
        {
          "internalType": "address[]",
          "name": "",
          "type": "address[]"
        }
      ],
      "stateMutability": "view",
      "type": "function",
      "constant": true
    },
    {
      "inputs": [
        {
          "internalType": "uint256",
          "name": "carid",
          "type": "uint256"
        }
      ],
      "name": "cardetails",
      "outputs": [
        {
          "components": [
            {
              "components": [
                {
                  "internalType": "string",
                  "name": "itemname",
                  "type": "string"
                },
                {
                  "internalType": "uint256",
                  "name": "itemprice",
                  "type": "uint256"
                },
                {
                  "internalType": "uint256",
                  "name": "itemquantity",
                  "type": "uint256"
                },
                {
                  "internalType": "uint256",
                  "name": "itemnumber",
                  "type": "uint256"
                },
                {
                  "internalType": "address[]",
                  "name": "ownerarray",
                  "type": "address[]"
                },
                {
                  "internalType": "address",
                  "name": "itemowner",
                  "type": "address"
                },
                {
                  "internalType": "enum ItemAuthenticity.status",
                  "name": "itemstatus",
                  "type": "uint8"
                },
                {
                  "internalType": "enum ItemAuthenticity.posession",
                  "name": "itempossesdby",
                  "type": "uint8"
                }
              ],
              "internalType": "struct ItemAuthenticity.enginestruct",
              "name": "engine",
              "type": "tuple"
            },
            {
              "components": [
                {
                  "internalType": "string",
                  "name": "itemname",
                  "type": "string"
                },
                {
                  "internalType": "uint256",
                  "name": "itemprice",
                  "type": "uint256"
                },
                {
                  "internalType": "uint256",
                  "name": "itemquantity",
                  "type": "uint256"
                },
                {
                  "internalType": "uint256",
                  "name": "itemnumber",
                  "type": "uint256"
                },
                {
                  "internalType": "address[]",
                  "name": "ownerarray",
                  "type": "address[]"
                },
                {
                  "internalType": "address",
                  "name": "itemowner",
                  "type": "address"
                },
                {
                  "internalType": "enum ItemAuthenticity.status",
                  "name": "itemstatus",
                  "type": "uint8"
                },
                {
                  "internalType": "enum ItemAuthenticity.posession",
                  "name": "itempossesdby",
                  "type": "uint8"
                }
              ],
              "internalType": "struct ItemAuthenticity.batterystruct",
              "name": "battery",
              "type": "tuple"
            },
            {
              "internalType": "string",
              "name": "carname",
              "type": "string"
            },
            {
              "internalType": "string",
              "name": "carmodel",
              "type": "string"
            },
            {
              "internalType": "uint256",
              "name": "carprice",
              "type": "uint256"
            },
            {
              "internalType": "address[]",
              "name": "carownerarray",
              "type": "address[]"
            },
            {
              "internalType": "address",
              "name": "carowner",
              "type": "address"
            },
            {
              "internalType": "enum ItemAuthenticity.carstatus",
              "name": "carstatus",
              "type": "uint8"
            }
          ],
          "internalType": "struct ItemAuthenticity.carstruct",
          "name": "",
          "type": "tuple"
        }
      ],
      "stateMutability": "view",
      "type": "function",
      "constant": true
    },
    {
      "inputs": [],
      "name": "withdrawpaymentfromcontract",
      "outputs": [],
      "stateMutability": "nonpayable",
      "type": "function"
    }
  ],
  "bytecode": "0x608060405234801561001057600080fd5b50336000806101000a81548173ffffffffffffffffffffffffffffffffffffffff021916908373ffffffffffffffffffffffffffffffffffffffff16021790555033600160006101000a81548173ffffffffffffffffffffffffffffffffffffffff021916908373ffffffffffffffffffffffffffffffffffffffff160217905550614643806100a16000396000f3fe60806040526004361061012a5760003560e01c80636112f4d2116100ab578063aa2bf98f1161006f578063aa2bf98f146103bd578063d1ce4da0146103fa578063d53ee88d14610423578063df2130c11461044c578063f307a0b81461048f578063f728e4fc146104cc5761012a565b80636112f4d2146102fb578063747542821461032457806380e5de011461034f5780638279a8e2146103785780638e751088146103a15761012a565b80632e601379116100f25780632e6013791461022e57806330226c491461025757806342cb619c1461029a5780635a904fc0146102b65780636024e48c146102df5761012a565b806307f54a3f1461012f5780631f6aad961461015a578063255cd0aa1461019757806326c7adf5146101d45780632948b3f714610217575b600080fd5b34801561013b57600080fd5b506101446104f5565b6040516101519190614049565b60405180910390f35b34801561016657600080fd5b50610181600480360361017c91908101906136ad565b61051b565b60405161018e9190614317565b60405180910390f35b3480156101a357600080fd5b506101be60048036036101b991908101906136ad565b610bce565b6040516101cb9190614064565b60405180910390f35b3480156101e057600080fd5b506101fb60048036036101f691908101906136ad565b610c72565b60405161020e9796959493929190614339565b60405180910390f35b34801561022357600080fd5b5061022c611223565b005b34801561023a57600080fd5b5061025560048036036102509190810190613579565b61131d565b005b34801561026357600080fd5b5061027e600480360361027991908101906136ad565b611a84565b6040516102919796959493929190614086565b60405180910390f35b6102b460048036036102af91908101906136ad565b611b98565b005b3480156102c257600080fd5b506102dd60048036036102d89190810190613632565b611d73565b005b6102f960048036036102f491908101906136ad565b61209a565b005b34801561030757600080fd5b50610322600480360361031d91908101906136ad565b61234f565b005b34801561033057600080fd5b506103396125a7565b6040516103469190614049565b60405180910390f35b34801561035b57600080fd5b50610376600480360361037191908101906136ad565b6125cc565b005b34801561038457600080fd5b5061039f600480360361039a91908101906136d6565b6126bb565b005b6103bb60048036036103b691908101906136ad565b612712565b005b3480156103c957600080fd5b506103e460048036036103df91908101906136ad565b6129c7565b6040516103f19190614064565b60405180910390f35b34801561040657600080fd5b50610421600480360361041c91908101906136ad565b612a6b565b005b34801561042f57600080fd5b5061044a600480360361044591908101906136ad565b612cc3565b005b34801561045857600080fd5b50610473600480360361046e91908101906136ad565b612db1565b6040516104869796959493929190614086565b60405180910390f35b34801561049b57600080fd5b506104b660048036036104b191908101906136ad565b612ec5565b6040516104c39190614064565b60405180910390f35b3480156104d857600080fd5b506104f360048036036104ee9190810190613632565b612f69565b005b600260009054906101000a900473ffffffffffffffffffffffffffffffffffffffff1681565b610523613290565b60056000838152602001908152602001600020604051806101000160405290816000820160405180610100016040529081600082018054600181600116156101000203166002900480601f0160208091040260200160405190810160405280929190818152602001828054600181600116156101000203166002900480156105ec5780601f106105c1576101008083540402835291602001916105ec565b820191906000526020600020905b8154815290600101906020018083116105cf57829003601f168201915b505050505081526020016001820154815260200160028201548152602001600382015481526020016004820180548060200260200160405190810160405280929190818152602001828054801561069857602002820191906000526020600020905b8160009054906101000a900473ffffffffffffffffffffffffffffffffffffffff1673ffffffffffffffffffffffffffffffffffffffff168152602001906001019080831161064e575b505050505081526020016005820160009054906101000a900473ffffffffffffffffffffffffffffffffffffffff1673ffffffffffffffffffffffffffffffffffffffff1673ffffffffffffffffffffffffffffffffffffffff1681526020016005820160149054906101000a900460ff16600481111561071557fe5b600481111561072057fe5b81526020016005820160159054906101000a900460ff16600281111561074257fe5b600281111561074d57fe5b8152505081526020016006820160405180610100016040529081600082018054600181600116156101000203166002900480601f0160208091040260200160405190810160405280929190818152602001828054600181600116156101000203166002900480156107ff5780601f106107d4576101008083540402835291602001916107ff565b820191906000526020600020905b8154815290600101906020018083116107e257829003601f168201915b50505050508152602001600182015481526020016002820154815260200160038201548152602001600482018054806020026020016040519081016040528092919081815260200182805480156108ab57602002820191906000526020600020905b8160009054906101000a900473ffffffffffffffffffffffffffffffffffffffff1673ffffffffffffffffffffffffffffffffffffffff1681526020019060010190808311610861575b505050505081526020016005820160009054906101000a900473ffffffffffffffffffffffffffffffffffffffff1673ffffffffffffffffffffffffffffffffffffffff1673ffffffffffffffffffffffffffffffffffffffff1681526020016005820160149054906101000a900460ff16600481111561092857fe5b600481111561093357fe5b81526020016005820160159054906101000a900460ff16600281111561095557fe5b600281111561096057fe5b815250508152602001600c82018054600181600116156101000203166002900480601f016020809104026020016040519081016040528092919081815260200182805460018160011615610100020316600290048015610a015780601f106109d657610100808354040283529160200191610a01565b820191906000526020600020905b8154815290600101906020018083116109e457829003601f168201915b50505050508152602001600d82018054600181600116156101000203166002900480601f016020809104026020016040519081016040528092919081815260200182805460018160011615610100020316600290048015610aa35780601f10610a7857610100808354040283529160200191610aa3565b820191906000526020600020905b815481529060010190602001808311610a8657829003601f168201915b50505050508152602001600e8201548152602001600f8201805480602002602001604051908101604052809291908181526020018280548015610b3b57602002820191906000526020600020905b8160009054906101000a900473ffffffffffffffffffffffffffffffffffffffff1673ffffffffffffffffffffffffffffffffffffffff1681526020019060010190808311610af1575b505050505081526020016010820160009054906101000a900473ffffffffffffffffffffffffffffffffffffffff1673ffffffffffffffffffffffffffffffffffffffff1673ffffffffffffffffffffffffffffffffffffffff1681526020016010820160149054906101000a900460ff166001811115610bb857fe5b6001811115610bc357fe5b815250509050919050565b606060036000838152602001908152602001600020600401805480602002602001604051908101604052809291908181526020018280548015610c6657602002820191906000526020600020905b8160009054906101000a900473ffffffffffffffffffffffffffffffffffffffff1673ffffffffffffffffffffffffffffffffffffffff1681526020019060010190808311610c1c575b50505050509050919050565b60056020528060005260406000206000915090508060000160405180610100016040529081600082018054600181600116156101000203166002900480601f016020809104026020016040519081016040528092919081815260200182805460018160011615610100020316600290048015610d2f5780601f10610d0457610100808354040283529160200191610d2f565b820191906000526020600020905b815481529060010190602001808311610d1257829003601f168201915b5050505050815260200160018201548152602001600282015481526020016003820154815260200160048201805480602002602001604051908101604052809291908181526020018280548015610ddb57602002820191906000526020600020905b8160009054906101000a900473ffffffffffffffffffffffffffffffffffffffff1673ffffffffffffffffffffffffffffffffffffffff1681526020019060010190808311610d91575b505050505081526020016005820160009054906101000a900473ffffffffffffffffffffffffffffffffffffffff1673ffffffffffffffffffffffffffffffffffffffff1673ffffffffffffffffffffffffffffffffffffffff1681526020016005820160149054906101000a900460ff166004811115610e5857fe5b6004811115610e6357fe5b81526020016005820160159054906101000a900460ff166002811115610e8557fe5b6002811115610e9057fe5b81525050908060060160405180610100016040529081600082018054600181600116156101000203166002900480601f016020809104026020016040519081016040528092919081815260200182805460018160011615610100020316600290048015610f3e5780601f10610f1357610100808354040283529160200191610f3e565b820191906000526020600020905b815481529060010190602001808311610f2157829003601f168201915b5050505050815260200160018201548152602001600282015481526020016003820154815260200160048201805480602002602001604051908101604052809291908181526020018280548015610fea57602002820191906000526020600020905b8160009054906101000a900473ffffffffffffffffffffffffffffffffffffffff1673ffffffffffffffffffffffffffffffffffffffff1681526020019060010190808311610fa0575b505050505081526020016005820160009054906101000a900473ffffffffffffffffffffffffffffffffffffffff1673ffffffffffffffffffffffffffffffffffffffff1673ffffffffffffffffffffffffffffffffffffffff1681526020016005820160149054906101000a900460ff16600481111561106757fe5b600481111561107257fe5b81526020016005820160159054906101000a900460ff16600281111561109457fe5b600281111561109f57fe5b815250509080600c018054600181600116156101000203166002900480601f01602080910402602001604051908101604052809291908181526020018280546001816001161561010002031660029004801561113c5780601f106111115761010080835404028352916020019161113c565b820191906000526020600020905b81548152906001019060200180831161111f57829003601f168201915b50505050509080600d018054600181600116156101000203166002900480601f0160208091040260200160405190810160405280929190818152602001828054600181600116156101000203166002900480156111da5780601f106111af576101008083540402835291602001916111da565b820191906000526020600020905b8154815290600101906020018083116111bd57829003601f168201915b50505050509080600e0154908060100160009054906101000a900473ffffffffffffffffffffffffffffffffffffffff16908060100160149054906101000a900460ff16905087565b6000809054906101000a900473ffffffffffffffffffffffffffffffffffffffff1673ffffffffffffffffffffffffffffffffffffffff163373ffffffffffffffffffffffffffffffffffffffff16146112b2576040517f08c379a00000000000000000000000000000000000000000000000000000000081526004016112a9906141f7565b60405180910390fd5b600160009054906101000a900473ffffffffffffffffffffffffffffffffffffffff1673ffffffffffffffffffffffffffffffffffffffff166108fc479081150290604051600060405180830381858888f1935050505015801561131a573d6000803e3d6000fd5b50565b33600260006101000a81548173ffffffffffffffffffffffffffffffffffffffff021916908373ffffffffffffffffffffffffffffffffffffffff160217905550600360008381526020019081526020016000206000016005600085815260200190815260200160002060000160000190805460018160011615610100020316600290046113ac929190613302565b506003600083815260200190815260200160002060010154600560008581526020019081526020016000206000016001018190555060036000838152602001908152602001600020600201546005600085815260200190815260200160002060000160020181905550600360008381526020019081526020016000206003015460056000858152602001908152602001600020600001600301819055506003600083815260200190815260200160002060050160009054906101000a900473ffffffffffffffffffffffffffffffffffffffff166005600085815260200190815260200160002060000160050160006101000a81548173ffffffffffffffffffffffffffffffffffffffff021916908373ffffffffffffffffffffffffffffffffffffffff1602179055506003600083815260200190815260200160002060050160149054906101000a900460ff166005600085815260200190815260200160002060000160050160146101000a81548160ff0219169083600481111561152f57fe5b02179055506003600083815260200190815260200160002060050160159054906101000a900460ff166005600085815260200190815260200160002060000160050160156101000a81548160ff0219169083600281111561158c57fe5b0217905550600460008281526020019081526020016000206000016005600085815260200190815260200160002060060160000190805460018160011615610100020316600290046115df929190613302565b506004600082815260200190815260200160002060010154600560008581526020019081526020016000206006016001018190555060046000828152602001908152602001600020600201546005600085815260200190815260200160002060060160020181905550600460008281526020019081526020016000206003015460056000858152602001908152602001600020600601600301819055506004600082815260200190815260200160002060050160009054906101000a900473ffffffffffffffffffffffffffffffffffffffff166005600085815260200190815260200160002060060160050160006101000a81548173ffffffffffffffffffffffffffffffffffffffff021916908373ffffffffffffffffffffffffffffffffffffffff1602179055506004600082815260200190815260200160002060050160149054906101000a900460ff166005600085815260200190815260200160002060060160050160146101000a81548160ff0219169083600481111561176257fe5b02179055506004600082815260200190815260200160002060050160159054906101000a900460ff166005600085815260200190815260200160002060060160050160156101000a81548160ff021916908360028111156117bf57fe5b02179055508560056000858152602001908152602001600020600c0190805190602001906117ee929190613389565b508460056000858152602001908152602001600020600d019080519060200190611819929190613389565b508360056000858152602001908152602001600020600e018190555060056000848152602001908152602001600020600f01339080600181540180825580915050600190039060005260206000200160009091909190916101000a81548173ffffffffffffffffffffffffffffffffffffffff021916908373ffffffffffffffffffffffffffffffffffffffff160217905550600260009054906101000a900473ffffffffffffffffffffffffffffffffffffffff166005600085815260200190815260200160002060100160006101000a81548173ffffffffffffffffffffffffffffffffffffffff021916908373ffffffffffffffffffffffffffffffffffffffff16021790555060006005600085815260200190815260200160002060100160146101000a81548160ff0219169083600181111561195657fe5b02179055507f08ad0055fa45d18ea5cd104168b1c61099385a71bb149ea144e423cad86515b1600560008581526020019081526020016000206000016000016005600086815260200190815260200160002060000160010154600560008781526020019081526020016000206000016002015460056000888152602001908152602001600020600001600301546005600089815260200190815260200160002060000160050160009054906101000a900473ffffffffffffffffffffffffffffffffffffffff16600560008a8152602001908152602001600020600c01600560008b8152602001908152602001600020600d01600560008c8152602001908152602001600020600e0154604051611a749897969594939291906140fc565b60405180910390a1505050505050565b6004602052806000526040600020600091509050806000018054600181600116156101000203166002900480601f016020809104026020016040519081016040528092919081815260200182805460018160011615610100020316600290048015611b305780601f10611b0557610100808354040283529160200191611b30565b820191906000526020600020905b815481529060010190602001808311611b1357829003601f168201915b5050505050908060010154908060020154908060030154908060050160009054906101000a900473ffffffffffffffffffffffffffffffffffffffff16908060050160149054906101000a900460ff16908060050160159054906101000a900460ff16905087565b3460056000838152602001908152602001600020600e015414611bf0576040517f08c379a0000000000000000000000000000000000000000000000000000000008152600401611be790614217565b60405180910390fd5b60006001811115611bfd57fe5b6005600083815260200190815260200160002060100160149054906101000a900460ff166001811115611c2c57fe5b14611c6c576040517f08c379a0000000000000000000000000000000000000000000000000000000008152600401611c6390614257565b60405180910390fd5b60016005600083815260200190815260200160002060100160146101000a81548160ff02191690836001811115611c9f57fe5b0217905550336005600083815260200190815260200160002060100160006101000a81548173ffffffffffffffffffffffffffffffffffffffff021916908373ffffffffffffffffffffffffffffffffffffffff16021790555060056000828152602001908152602001600020600f01339080600181540180825580915050600190039060005260206000200160009091909190916101000a81548173ffffffffffffffffffffffffffffffffffffffff021916908373ffffffffffffffffffffffffffffffffffffffff16021790555050565b6000809054906101000a900473ffffffffffffffffffffffffffffffffffffffff1673ffffffffffffffffffffffffffffffffffffffff163373ffffffffffffffffffffffffffffffffffffffff1614611e02576040517f08c379a0000000000000000000000000000000000000000000000000000000008152600401611df990614237565b60405180910390fd5b83600360008381526020019081526020016000206000019080519060200190611e2c929190613389565b50826003600083815260200190815260200160002060010181905550816003600083815260200190815260200160002060020181905550806003600083815260200190815260200160002060030181905550336003600083815260200190815260200160002060050160006101000a81548173ffffffffffffffffffffffffffffffffffffffff021916908373ffffffffffffffffffffffffffffffffffffffff16021790555060036000828152602001908152602001600020600401339080600181540180825580915050600190039060005260206000200160009091909190916101000a81548173ffffffffffffffffffffffffffffffffffffffff021916908373ffffffffffffffffffffffffffffffffffffffff16021790555060006003600083815260200190815260200160002060050160146101000a81548160ff02191690836004811115611f7d57fe5b021790555060006003600083815260200190815260200160002060050160156101000a81548160ff02191690836002811115611fb557fe5b02179055507fb40e1423a59a1720d0685147271213a584e7aae99ddb7d793ab2423576e65716600360008381526020019081526020016000206000016003600084815260200190815260200160002060010154600360008581526020019081526020016000206002015460036000868152602001908152602001600020600301546000600481111561204357fe5b6003600088815260200190815260200160002060050160009054906101000a900473ffffffffffffffffffffffffffffffffffffffff1660405161208c9695949392919061418f565b60405180910390a150505050565b346003600083815260200190815260200160002060010154146120f2576040517f08c379a00000000000000000000000000000000000000000000000000000000081526004016120e9906142f7565b60405180910390fd5b600060048111156120ff57fe5b6003600083815260200190815260200160002060050160149054906101000a900460ff16600481111561212e57fe5b1461216e576040517f08c379a0000000000000000000000000000000000000000000000000000000008152600401612165906142b7565b60405180910390fd5b60016003600083815260200190815260200160002060050160146101000a81548160ff021916908360048111156121a157fe5b0217905550336003600083815260200190815260200160002060050160006101000a81548173ffffffffffffffffffffffffffffffffffffffff021916908373ffffffffffffffffffffffffffffffffffffffff16021790555060036000828152602001908152602001600020600401339080600181540180825580915050600190039060005260206000200160009091909190916101000a81548173ffffffffffffffffffffffffffffffffffffffff021916908373ffffffffffffffffffffffffffffffffffffffff1602179055507fb40e1423a59a1720d0685147271213a584e7aae99ddb7d793ab2423576e6571660036000838152602001908152602001600020600001600360008481526020019081526020016000206001015460036000858152602001908152602001600020600201546003600086815260200190815260200160002060030154600160048111156122fb57fe5b6003600088815260200190815260200160002060050160009054906101000a900473ffffffffffffffffffffffffffffffffffffffff166040516123449695949392919061418f565b60405180910390a150565b6001600481111561235c57fe5b6004600083815260200190815260200160002060050160149054906101000a900460ff16600481111561238b57fe5b146123cb576040517f08c379a00000000000000000000000000000000000000000000000000000000081526004016123c2906142d7565b60405180910390fd5b6000809054906101000a900473ffffffffffffffffffffffffffffffffffffffff1673ffffffffffffffffffffffffffffffffffffffff163373ffffffffffffffffffffffffffffffffffffffff161461245a576040517f08c379a000000000000000000000000000000000000000000000000000000000815260040161245190614297565b60405180910390fd5b60016004600083815260200190815260200160002060050160156101000a81548160ff0219169083600281111561248d57fe5b021790555060026004600083815260200190815260200160002060050160146101000a81548160ff021916908360048111156124c557fe5b02179055507fb40e1423a59a1720d0685147271213a584e7aae99ddb7d793ab2423576e65716600460008381526020019081526020016000206000016004600084815260200190815260200160002060010154600460008581526020019081526020016000206002015460046000868152602001908152602001600020600301546002600481111561255357fe5b6004600088815260200190815260200160002060050160009054906101000a900473ffffffffffffffffffffffffffffffffffffffff1660405161259c9695949392919061418f565b60405180910390a150565b6000809054906101000a900473ffffffffffffffffffffffffffffffffffffffff1681565b600260048111156125d957fe5b6004600083815260200190815260200160002060050160149054906101000a900460ff16600481111561260857fe5b14612648576040517f08c379a000000000000000000000000000000000000000000000000000000000815260040161263f90614277565b60405180910390fd5b60036004600083815260200190815260200160002060050160146101000a81548160ff0219169083600481111561267b57fe5b021790555060026004600083815260200190815260200160002060050160156101000a81548160ff021916908360028111156126b357fe5b021790555050565b8160056000838152602001908152602001600020600e018190555060006005600083815260200190815260200160002060100160146101000a81548160ff0219169083600181111561270957fe5b02179055505050565b3460046000838152602001908152602001600020600101541461276a576040517f08c379a0000000000000000000000000000000000000000000000000000000008152600401612761906142f7565b60405180910390fd5b6000600481111561277757fe5b6004600083815260200190815260200160002060050160149054906101000a900460ff1660048111156127a657fe5b146127e6576040517f08c379a00000000000000000000000000000000000000000000000000000000081526004016127dd906142b7565b60405180910390fd5b60016004600083815260200190815260200160002060050160146101000a81548160ff0219169083600481111561281957fe5b0217905550336004600083815260200190815260200160002060050160006101000a81548173ffffffffffffffffffffffffffffffffffffffff021916908373ffffffffffffffffffffffffffffffffffffffff16021790555060046000828152602001908152602001600020600401339080600181540180825580915050600190039060005260206000200160009091909190916101000a81548173ffffffffffffffffffffffffffffffffffffffff021916908373ffffffffffffffffffffffffffffffffffffffff1602179055507fb40e1423a59a1720d0685147271213a584e7aae99ddb7d793ab2423576e65716600460008381526020019081526020016000206000016004600084815260200190815260200160002060010154600460008581526020019081526020016000206002015460046000868152602001908152602001600020600301546001600481111561297357fe5b6004600088815260200190815260200160002060050160009054906101000a900473ffffffffffffffffffffffffffffffffffffffff166040516129bc9695949392919061418f565b60405180910390a150565b606060056000838152602001908152602001600020600f01805480602002602001604051908101604052809291908181526020018280548015612a5f57602002820191906000526020600020905b8160009054906101000a900473ffffffffffffffffffffffffffffffffffffffff1673ffffffffffffffffffffffffffffffffffffffff1681526020019060010190808311612a15575b50505050509050919050565b60016004811115612a7857fe5b6003600083815260200190815260200160002060050160149054906101000a900460ff166004811115612aa757fe5b14612ae7576040517f08c379a0000000000000000000000000000000000000000000000000000000008152600401612ade906142d7565b60405180910390fd5b6000809054906101000a900473ffffffffffffffffffffffffffffffffffffffff1673ffffffffffffffffffffffffffffffffffffffff163373ffffffffffffffffffffffffffffffffffffffff1614612b76576040517f08c379a0000000000000000000000000000000000000000000000000000000008152600401612b6d90614297565b60405180910390fd5b60016003600083815260200190815260200160002060050160156101000a81548160ff02191690836002811115612ba957fe5b021790555060026003600083815260200190815260200160002060050160146101000a81548160ff02191690836004811115612be157fe5b02179055507fb40e1423a59a1720d0685147271213a584e7aae99ddb7d793ab2423576e657166003600083815260200190815260200160002060000160036000848152602001908152602001600020600101546003600085815260200190815260200160002060020154600360008681526020019081526020016000206003015460026004811115612c6f57fe5b6003600088815260200190815260200160002060050160009054906101000a900473ffffffffffffffffffffffffffffffffffffffff16604051612cb89695949392919061418f565b60405180910390a150565b60026004811115612cd057fe5b6003600083815260200190815260200160002060050160149054906101000a900460ff166004811115612cff57fe5b14612d3f576040517f08c379a0000000000000000000000000000000000000000000000000000000008152600401612d3690614277565b60405180910390fd5b600380600083815260200190815260200160002060050160146101000a81548160ff02191690836004811115612d7157fe5b021790555060026003600083815260200190815260200160002060050160156101000a81548160ff02191690836002811115612da957fe5b021790555050565b6003602052806000526040600020600091509050806000018054600181600116156101000203166002900480601f016020809104026020016040519081016040528092919081815260200182805460018160011615610100020316600290048015612e5d5780601f10612e3257610100808354040283529160200191612e5d565b820191906000526020600020905b815481529060010190602001808311612e4057829003601f168201915b5050505050908060010154908060020154908060030154908060050160009054906101000a900473ffffffffffffffffffffffffffffffffffffffff16908060050160149054906101000a900460ff16908060050160159054906101000a900460ff16905087565b606060046000838152602001908152602001600020600401805480602002602001604051908101604052809291908181526020018280548015612f5d57602002820191906000526020600020905b8160009054906101000a900473ffffffffffffffffffffffffffffffffffffffff1673ffffffffffffffffffffffffffffffffffffffff1681526020019060010190808311612f13575b50505050509050919050565b6000809054906101000a900473ffffffffffffffffffffffffffffffffffffffff1673ffffffffffffffffffffffffffffffffffffffff163373ffffffffffffffffffffffffffffffffffffffff1614612ff8576040517f08c379a0000000000000000000000000000000000000000000000000000000008152600401612fef90614237565b60405180910390fd5b83600460008381526020019081526020016000206000019080519060200190613022929190613389565b50826004600083815260200190815260200160002060010181905550816004600083815260200190815260200160002060020181905550806004600083815260200190815260200160002060030181905550336004600083815260200190815260200160002060050160006101000a81548173ffffffffffffffffffffffffffffffffffffffff021916908373ffffffffffffffffffffffffffffffffffffffff16021790555060046000828152602001908152602001600020600401339080600181540180825580915050600190039060005260206000200160009091909190916101000a81548173ffffffffffffffffffffffffffffffffffffffff021916908373ffffffffffffffffffffffffffffffffffffffff16021790555060006004600083815260200190815260200160002060050160146101000a81548160ff0219169083600481111561317357fe5b021790555060006004600083815260200190815260200160002060050160156101000a81548160ff021916908360028111156131ab57fe5b02179055507fb40e1423a59a1720d0685147271213a584e7aae99ddb7d793ab2423576e65716600460008381526020019081526020016000206000016004600084815260200190815260200160002060010154600460008581526020019081526020016000206002015460046000868152602001908152602001600020600301546000600481111561323957fe5b6004600088815260200190815260200160002060050160009054906101000a900473ffffffffffffffffffffffffffffffffffffffff166040516132829695949392919061418f565b60405180910390a150505050565b6040518061010001604052806132a4613409565b81526020016132b161347a565b815260200160608152602001606081526020016000815260200160608152602001600073ffffffffffffffffffffffffffffffffffffffff168152602001600060018111156132fc57fe5b81525090565b828054600181600116156101000203166002900490600052602060002090601f016020900481019282601f1061333b5780548555613378565b8280016001018555821561337857600052602060002091601f016020900482015b8281111561337757825482559160010191906001019061335c565b5b50905061338591906134eb565b5090565b828054600181600116156101000203166002900490600052602060002090601f016020900481019282601f106133ca57805160ff19168380011785556133f8565b828001600101855582156133f8579182015b828111156133f75782518255916020019190600101906133dc565b5b50905061340591906134eb565b5090565b6040518061010001604052806060815260200160008152602001600081526020016000815260200160608152602001600073ffffffffffffffffffffffffffffffffffffffff1681526020016000600481111561346257fe5b81526020016000600281111561347457fe5b81525090565b6040518061010001604052806060815260200160008152602001600081526020016000815260200160608152602001600073ffffffffffffffffffffffffffffffffffffffff168152602001600060048111156134d357fe5b8152602001600060028111156134e557fe5b81525090565b61350d91905b808211156135095760008160009055506001016134f1565b5090565b90565b600082601f83011261352157600080fd5b813561353461352f826143f1565b6143c4565b9150808252602083016020830185838301111561355057600080fd5b61355b83828461457c565b50505092915050565b600081359050613573816145f6565b92915050565b60008060008060008060c0878903121561359257600080fd5b600087013567ffffffffffffffff8111156135ac57600080fd5b6135b889828a01613510565b965050602087013567ffffffffffffffff8111156135d557600080fd5b6135e189828a01613510565b95505060406135f289828a01613564565b945050606061360389828a01613564565b935050608061361489828a01613564565b92505060a061362589828a01613564565b9150509295509295509295565b6000806000806080858703121561364857600080fd5b600085013567ffffffffffffffff81111561366257600080fd5b61366e87828801613510565b945050602061367f87828801613564565b935050604061369087828801613564565b92505060606136a187828801613564565b91505092959194509250565b6000602082840312156136bf57600080fd5b60006136cd84828501613564565b91505092915050565b600080604083850312156136e957600080fd5b60006136f785828601613564565b925050602061370885828601613564565b9150509250929050565b600061371e838361372a565b60208301905092915050565b613733816144d1565b82525050565b613742816144d1565b82525050565b60006137538261445d565b61375d818561449e565b93506137688361442d565b8060005b838110156137995781516137808882613712565b975061378b83614480565b92505060018101905061376c565b5085935050505092915050565b60006137b182614452565b6137bb818561448d565b93506137c68361441d565b8060005b838110156137f75781516137de8882613712565b97506137e983614473565b9250506001810190506137ca565b5085935050505092915050565b61380d81614546565b82525050565b61381c81614546565b82525050565b61382b81614558565b82525050565b61383a81614558565b82525050565b6138498161456a565b82525050565b6138588161456a565b82525050565b600061386982614468565b61387381856144af565b935061388381856020860161458b565b61388c816145be565b840191505092915050565b60006138a282614468565b6138ac81856144c0565b93506138bc81856020860161458b565b6138c5816145be565b840191505092915050565b6000815460018116600081146138ed576001811461391357613957565b607f60028304166138fe81876144c0565b955060ff198316865260208601935050613957565b6002820461392181876144c0565b955061392c8561443d565b60005b8281101561394e5781548189015260018201915060208101905061392f565b80880195505050505b505092915050565b600061396c602e836144c0565b91507f4f6e6c7920746865206d616e7566616374757265722063616e2077697468647260008301527f617720746865207061796d656e740000000000000000000000000000000000006020830152604082019050919050565b60006139d26015836144c0565b91507f636172207072696365206e6f74206d61746368656400000000000000000000006000830152602082019050919050565b6000613a126029836144c0565b91507f4f6e6c7920746865206d616e7566616374757265722063616e2063726561746560008301527f20746865206974656d00000000000000000000000000000000000000000000006020830152604082019050919050565b6000613a78601f836144c0565b91507f54686520636172206973206e6f7420796574207265616479666f7273616c65006000830152602082019050919050565b6000613ab86041836144c0565b91507f546865206974656d20686173206e6f74206265656e206f757420666f7220646560008301527f6c69766572792066726f6d20746865206d616e7566616374757265722079657460208301527f2e000000000000000000000000000000000000000000000000000000000000006040830152606082019050919050565b6000613b446027836144c0565b91507f4f6e6c79206d616e7566616374757265722063616e2064656c6976657220746860008301527f65206974656d2e000000000000000000000000000000000000000000000000006020830152604082019050919050565b6000613baa601c836144c0565b91507f546865206974656d20697320616c7265616479207061696420666f72000000006000830152602082019050919050565b6000613bea6029836144c0565b91507f5061796d656e742070656e64696e67206f72206974656d20616c72656164792060008301527f64656c69766572656400000000000000000000000000000000000000000000006020830152604082019050919050565b6000613c506016836144c0565b91507f4974656d207072696365206e6f74206d617463686564000000000000000000006000830152602082019050919050565b6000610100830160008301518482036000860152613ca1828261385e565b9150506020830151613cb6602086018261402b565b506040830151613cc9604086018261402b565b506060830151613cdc606086018261402b565b5060808301518482036080860152613cf482826137a6565b91505060a0830151613d0960a086018261372a565b5060c0830151613d1c60c0860182613840565b5060e0830151613d2f60e0860182613822565b508091505092915050565b6000610100830160008301518482036000860152613d58828261385e565b9150506020830151613d6d602086018261402b565b506040830151613d80604086018261402b565b506060830151613d93606086018261402b565b5060808301518482036080860152613dab82826137a6565b91505060a0830151613dc060a086018261372a565b5060c0830151613dd360c0860182613840565b5060e0830151613de660e0860182613822565b508091505092915050565b6000610100830160008301518482036000860152613e0f8282613ebd565b91505060208301518482036020860152613e298282613c83565b91505060408301518482036040860152613e43828261385e565b91505060608301518482036060860152613e5d828261385e565b9150506080830151613e72608086018261402b565b5060a083015184820360a0860152613e8a82826137a6565b91505060c0830151613e9f60c086018261372a565b5060e0830151613eb260e0860182613804565b508091505092915050565b6000610100830160008301518482036000860152613edb828261385e565b9150506020830151613ef0602086018261402b565b506040830151613f03604086018261402b565b506060830151613f16606086018261402b565b5060808301518482036080860152613f2e82826137a6565b91505060a0830151613f4360a086018261372a565b5060c0830151613f5660c0860182613840565b5060e0830151613f6960e0860182613822565b508091505092915050565b6000610100830160008301518482036000860152613f92828261385e565b9150506020830151613fa7602086018261402b565b506040830151613fba604086018261402b565b506060830151613fcd606086018261402b565b5060808301518482036080860152613fe582826137a6565b91505060a0830151613ffa60a086018261372a565b5060c083015161400d60c0860182613840565b5060e083015161402060e0860182613822565b508091505092915050565b6140348161453c565b82525050565b6140438161453c565b82525050565b600060208201905061405e6000830184613739565b92915050565b6000602082019050818103600083015261407e8184613748565b905092915050565b600060e08201905081810360008301526140a0818a613897565b90506140af602083018961403a565b6140bc604083018861403a565b6140c9606083018761403a565b6140d66080830186613739565b6140e360a083018561384f565b6140f060c0830184613831565b98975050505050505050565b6000610100820190508181036000830152614117818b6138d0565b9050614126602083018a61403a565b614133604083018961403a565b614140606083018861403a565b61414d6080830187613739565b81810360a083015261415f81866138d0565b905081810360c083015261417381856138d0565b905061418260e083018461403a565b9998505050505050505050565b600060c08201905081810360008301526141a981896138d0565b90506141b8602083018861403a565b6141c5604083018761403a565b6141d2606083018661403a565b6141df608083018561403a565b6141ec60a0830184613739565b979650505050505050565b600060208201905081810360008301526142108161395f565b9050919050565b60006020820190508181036000830152614230816139c5565b9050919050565b6000602082019050818103600083015261425081613a05565b9050919050565b6000602082019050818103600083015261427081613a6b565b9050919050565b6000602082019050818103600083015261429081613aab565b9050919050565b600060208201905081810360008301526142b081613b37565b9050919050565b600060208201905081810360008301526142d081613b9d565b9050919050565b600060208201905081810360008301526142f081613bdd565b9050919050565b6000602082019050818103600083015261431081613c43565b9050919050565b600060208201905081810360008301526143318184613df1565b905092915050565b600060e0820190508181036000830152614353818a613f74565b905081810360208301526143678189613d3a565b9050818103604083015261437b8188613897565b9050818103606083015261438f8187613897565b905061439e608083018661403a565b6143ab60a0830185613739565b6143b860c0830184613813565b98975050505050505050565b6000604051905081810181811067ffffffffffffffff821117156143e757600080fd5b8060405250919050565b600067ffffffffffffffff82111561440857600080fd5b601f19601f8301169050602081019050919050565b6000819050602082019050919050565b6000819050602082019050919050565b60008190508160005260206000209050919050565b600081519050919050565b600081519050919050565b600081519050919050565b6000602082019050919050565b6000602082019050919050565b600082825260208201905092915050565b600082825260208201905092915050565b600082825260208201905092915050565b600082825260208201905092915050565b60006144dc8261451c565b9050919050565b60008190506144f1826145cf565b919050565b6000819050614504826145dc565b919050565b6000819050614517826145e9565b919050565b600073ffffffffffffffffffffffffffffffffffffffff82169050919050565b6000819050919050565b6000614551826144e3565b9050919050565b6000614563826144f6565b9050919050565b600061457582614509565b9050919050565b82818337600083830152505050565b60005b838110156145a957808201518184015260208101905061458e565b838111156145b8576000848401525b50505050565b6000601f19601f8301169050919050565b600281106145d957fe5b50565b600381106145e657fe5b50565b600581106145f357fe5b50565b6145ff8161453c565b811461460a57600080fd5b5056fea26469706673582212200f3fc76492fd7731adf49e0570837d272f84fcfac3bf30da97813f2383ed6f6664736f6c63430006010033",
  "source": "// pragma solidity >=0.4.21 <0.7.0;\npragma solidity ^0.6.0;\npragma experimental ABIEncoderV2;\n\ncontract ItemAuthenticity{\n    \n    address public manufacturer;\n    address payable manufactureraddress;\n    address public assembler;\n    \n    \n    constructor() public{\n        manufacturer = msg.sender;\n        manufactureraddress = msg.sender;\n    }\n    \n    enum status{itemcreatedbymanufacturer,boughtandpaidbyassembler,outfordeliverybymanufacturer,itemrecievedbyassembler,itemsold}\n    enum posession{manufacturer, intransit ,assembler}\n    enum carstatus{readyforsale, sold}\n    \n        struct enginestruct {\n    string itemname;\n    uint itemprice;\n    uint itemquantity;\n    // uint itemuniqueid;\n    uint itemnumber;\n    address[] ownerarray;\n    address itemowner;\n    ItemAuthenticity.status itemstatus;\n    ItemAuthenticity.posession itempossesdby;\n}\n\nstruct batterystruct{\n    string itemname;\n    uint itemprice;\n    uint itemquantity;\n    // uint itemuniqueid;\n    uint itemnumber;\n    address[] ownerarray;\n    address itemowner;\n    ItemAuthenticity.status itemstatus;\n    ItemAuthenticity.posession itempossesdby;\n}\n\nstruct carstruct{\n    enginestruct engine;\n    batterystruct battery;\n    string carname;\n    string carmodel; \n    uint carprice;\n    // uint caruniqueid;\n    address[] carownerarray;\n    address carowner;\n    ItemAuthenticity.carstatus carstatus;\n    \n}\n    \n    event statusevent(string itemname, uint itemprice, uint itemquantity, uint itemid, uint itemtrackingstatus, address itemowner);\n    event carevent(string itemname, uint itemprice, uint itemquantity, uint itemnumber, address itemowner,string carname, string carmodel, uint carprice);\n    \n    mapping(uint => enginestruct) public inventorymapping;\n    mapping(uint => batterystruct) public batterymapping;\n    mapping(uint => carstruct) public carmapping;\n    \n    // function uniqueidgenerator() private view returns(uint){\n    //     return uint(sha256(block.difficulty, now, length));\n    // }\n    \n    \n    function itemcreation(string memory name, uint price, uint quantity, uint itemid) public{\n        require(msg.sender == manufacturer,\"Only the manufacturer can create the item\");\n        inventorymapping[itemid].itemname = name;\n        inventorymapping[itemid].itemprice = price;\n        inventorymapping[itemid].itemquantity = quantity;\n        // inventorymapping[itemid].itemuniqueid = uniqueidgenerator();\n        inventorymapping[itemid].itemnumber = itemid;\n        inventorymapping[itemid].itemowner = msg.sender;\n        inventorymapping[itemid].ownerarray.push(msg.sender);\n        inventorymapping[itemid].itemstatus = status.itemcreatedbymanufacturer;\n        inventorymapping[itemid].itempossesdby = posession.manufacturer;\n        emit statusevent(inventorymapping[itemid].itemname, inventorymapping[itemid].itemprice, inventorymapping[itemid].itemquantity,inventorymapping[itemid].itemnumber, uint(status.itemcreatedbymanufacturer),inventorymapping[itemid].itemowner);\n    }\n    \n    function batterycreation(string memory name, uint price, uint quantity, uint itemid) public{\n        require(msg.sender == manufacturer,\"Only the manufacturer can create the item\");\n        batterymapping[itemid].itemname = name;\n        batterymapping[itemid].itemprice = price;\n        batterymapping[itemid].itemquantity = quantity;\n        // batterymapping[itemid].itemuniqueid = uniqueidgenerator();\n        batterymapping[itemid].itemnumber = itemid;\n        batterymapping[itemid].itemowner = msg.sender;\n        batterymapping[itemid].ownerarray.push(msg.sender);\n        batterymapping[itemid].itemstatus = status.itemcreatedbymanufacturer;\n        batterymapping[itemid].itempossesdby = posession.manufacturer;\n        emit statusevent(batterymapping[itemid].itemname, batterymapping[itemid].itemprice, batterymapping[itemid].itemquantity,batterymapping[itemid].itemnumber, uint(status.itemcreatedbymanufacturer),batterymapping[itemid].itemowner);\n    }\n    \n    \n    function buyandpayitem(uint itemid) public payable{\n        require(inventorymapping[itemid].itemprice == msg.value, \"Item price not matched\");\n        require(inventorymapping[itemid].itemstatus == status.itemcreatedbymanufacturer,\"The item is already paid for\");\n        \n        inventorymapping[itemid].itemstatus = status.boughtandpaidbyassembler;\n        inventorymapping[itemid].itemowner = msg.sender;\n        inventorymapping[itemid].ownerarray.push(msg.sender);\n        emit statusevent(inventorymapping[itemid].itemname, inventorymapping[itemid].itemprice, inventorymapping[itemid].itemquantity,inventorymapping[itemid].itemnumber, uint(status.boughtandpaidbyassembler),inventorymapping[itemid].itemowner);\n    }\n    \n    function buyandpaybattery(uint itemid) public payable{\n        require(batterymapping[itemid].itemprice == msg.value, \"Item price not matched\");\n        require(batterymapping[itemid].itemstatus == status.itemcreatedbymanufacturer,\"The item is already paid for\");\n        \n        batterymapping[itemid].itemstatus = status.boughtandpaidbyassembler;\n        batterymapping[itemid].itemowner = msg.sender;\n        batterymapping[itemid].ownerarray.push(msg.sender);\n        emit statusevent(batterymapping[itemid].itemname, batterymapping[itemid].itemprice, batterymapping[itemid].itemquantity ,batterymapping[itemid].itemnumber, uint(status.boughtandpaidbyassembler),batterymapping[itemid].itemowner);\n    }\n    \n    function enginedeliveredbymanufacturer(uint itemid) public{\n        require(inventorymapping[itemid].itemstatus == status.boughtandpaidbyassembler,\"Payment pending or item already delivered\");\n        require(msg.sender == manufacturer,\"Only manufacturer can deliver the item.\");    \n        inventorymapping[itemid].itempossesdby = posession.intransit;\n        inventorymapping[itemid].itemstatus = status.outfordeliverybymanufacturer;\n        emit statusevent(inventorymapping[itemid].itemname, inventorymapping[itemid].itemprice, inventorymapping[itemid].itemquantity ,inventorymapping[itemid].itemnumber, uint(status.outfordeliverybymanufacturer),inventorymapping[itemid].itemowner);\n    }\n    \n    function batterydeliveredbymanufacturer(uint itemid) public{\n        require(batterymapping[itemid].itemstatus == status.boughtandpaidbyassembler,\"Payment pending or item already delivered\");\n        require(msg.sender == manufacturer,\"Only manufacturer can deliver the item.\");    \n        batterymapping[itemid].itempossesdby = posession.intransit;\n        batterymapping[itemid].itemstatus = status.outfordeliverybymanufacturer;\n        emit statusevent(batterymapping[itemid].itemname, batterymapping[itemid].itemprice, batterymapping[itemid].itemquantity ,batterymapping[itemid].itemnumber, uint(status.outfordeliverybymanufacturer),batterymapping[itemid].itemowner);\n    }\n    \n    function itemownersdetails(uint num) public view returns(address[] memory){\n        return inventorymapping[num].ownerarray;\n    }\n    \n    function batteryownersdetails(uint num) public view returns(address[]memory){\n        return batterymapping[num].ownerarray;\n    }\n    \n    function itemreceived(uint itemid) public{\n        require(inventorymapping[itemid].itemstatus == status.outfordeliverybymanufacturer,\"The item has not been out for delivery from the manufacturer yet.\");\n        inventorymapping[itemid].itemstatus = status.itemrecievedbyassembler;\n        inventorymapping[itemid].itempossesdby = posession.assembler;\n    }\n    \n    function batteryreceived(uint itemid) public{\n        require(batterymapping[itemid].itemstatus == status.outfordeliverybymanufacturer,\"The item has not been out for delivery from the manufacturer yet.\");\n        batterymapping[itemid].itemstatus = status.itemrecievedbyassembler;\n        batterymapping[itemid].itempossesdby = posession.assembler;\n    }\n    \n    function registercar(string memory carname, string memory carmodel, uint carprice, uint carid, uint itemid, uint batteryid) public  {\n        assembler = msg.sender;\n        carmapping[carid].engine.itemname = inventorymapping[itemid].itemname ;\n        carmapping[carid].engine.itemprice = inventorymapping[itemid].itemprice;\n        carmapping[carid].engine.itemquantity = inventorymapping[itemid].itemquantity;\n        // carmapping[carid].engine.itemuniqueid = inventorymapping[itemid].itemuniqueid ;\n        carmapping[carid].engine.itemnumber = inventorymapping[itemid].itemnumber;\n        carmapping[carid].engine.itemowner = inventorymapping[itemid].itemowner;\n        carmapping[carid].engine.itemstatus = inventorymapping[itemid].itemstatus;\n        carmapping[carid].engine.itempossesdby = inventorymapping[itemid].itempossesdby;\n        carmapping[carid].battery.itemname = batterymapping[batteryid].itemname ;\n        carmapping[carid].battery.itemprice = batterymapping[batteryid].itemprice;\n        carmapping[carid].battery.itemquantity = batterymapping[batteryid].itemquantity;\n        // carmapping[carid].battery.itemuniqueid = batterymapping[batteryid].itemuniqueid ;\n        carmapping[carid].battery.itemnumber = batterymapping[batteryid].itemnumber;\n        carmapping[carid].battery.itemowner = batterymapping[batteryid].itemowner;\n        carmapping[carid].battery.itemstatus = batterymapping[batteryid].itemstatus;\n        carmapping[carid].battery.itempossesdby = batterymapping[batteryid].itempossesdby;\n        carmapping[carid].carname = carname;\n        carmapping[carid].carmodel = carmodel;\n        carmapping[carid].carprice = carprice;\n        // carmapping[carid].caruniqueid = uniqueidgenerator();\n        carmapping[carid].carownerarray.push(msg.sender);\n        carmapping[carid].carowner = assembler;\n        carmapping[carid].carstatus = carstatus.readyforsale;\n        \n        emit carevent(carmapping[carid].engine.itemname,carmapping[carid].engine.itemprice,carmapping[carid].engine.itemquantity,carmapping[carid].engine.itemnumber,carmapping[carid].engine.itemowner,carmapping[carid].carname, carmapping[carid].carmodel,carmapping[carid].carprice);\n    \n    }\n    \n    \n    function buyandpaycar(uint carid) public payable{\n        require(carmapping[carid].carprice == msg.value, \"car price not matched\");\n        require(carmapping[carid].carstatus == carstatus.readyforsale,\"The car is not yet readyforsale\");\n        \n        carmapping[carid].carstatus = carstatus.sold;\n        carmapping[carid].carowner = msg.sender;\n        carmapping[carid].carownerarray.push(msg.sender);\n        \n    }    \n    \n    function sellusedcar(uint carprice, uint carid) public{\n        carmapping[carid].carprice = carprice;\n        // carmapping[carid].caruniqueid = uniqueidgenerator();\n        carmapping[carid].carstatus = carstatus.readyforsale;\n        \n    } \n    function carownershistory(uint carid) public view returns(address[] memory){\n        return carmapping[carid].carownerarray;\n    }\n    \n    function cardetails(uint carid) public view returns (carstruct memory){\n        return(carmapping[carid]);\n    }\n    \n    function withdrawpaymentfromcontract() public {\n        require(msg.sender == manufacturer,\"Only the manufacturer can withdraw the payment\");\n        // manufactureraddress = manufacturer;\n        manufactureraddress.transfer(address(this).balance);\n    }\n\n    \n}\n\n\n// event(itemcreatedbymanufacturer,boughtandpaidbyassembler,outfordeliverybymanufacturer,itemrecievedbyassembler,itemsold)\n//     manufacturer - itemcreation {name, price, quantity, uniqueid, itemnumber}\n//     assembler - buyandpayitem {itemnumber - payment}\n//     manufacturer - recieve payment from smart contract\n//     manufacturer - itemdelivery{changeevent to outfordelivery}\n//     assembler - registercar - {owner, engine-uniqueid, uniqueid}\n//     transferownership - lookup - (uniqueid - frommanufacturer-soldtoassembler)\n//     specify warranty, manufacturing date, numberofservices, counterfiet\n//     mapping of set of individual items to a car\n//     generate uniqueid for car for lookup of all details\n//     All items created array;\n",
  "sourcePath": "C:/Users/Ketan Rudrurkar/sample source tree/repos/BlockchainProject/contracts/ItemAuthenticity.sol",
  "compiler": {
    "name": "solc",
    "version": "0.6.1+commit.e6f7d5a4.Emscripten.clang"
  },
  "schemaVersion": "3.0.20",
  "updatedAt": "2020-04-20T21:26:42.631Z",
  "networkType": "ethereum",
  "devdoc": {
    "methods": {}
  },
  "userdoc": {
    "methods": {}
  }
}